:020000040800F2
:1000000040060020C50100085B17000839150008EC
:1000100059170008D1020008A11A000800000000CA
:100020000000000000000000000000007F17000832
:10003000ED020008000000007D170008811700088D
:10004000DF010008DF010008DF010008DF01000810
:10005000DF010008DF010008DF010008DF01000800
:10006000DF010008DF010008DF010008DF010008F0
:10007000DF010008DF010008DF010008DF010008E0
:10008000DF010008DF010008DF010008E1020008CD
:10009000D5020008DF010008DF010008DF010008C9
:1000A000DF010008DF010008DF010008DF010008B0
:1000B000DF010008DF010008DF010008DF010008A0
:1000C000DF010008DF010008DF010008DF01000890
:1000D000DF010008DF010008DF010008DF01000880
:1000E000DF010008DF010008DF010008DF01000870
:1000F000DF010008DF010008DF010008DF01000860
:10010000DF010008DF010008DF010008DF0100084F
:10011000DF010008DF010008DF010008DF0100083F
:10012000DF010008DF010008DF010008DF0100082F
:10013000DF010008DF010008DF010008DF0100081F
:10014000DF010008DF010008DF010008DF0100080F
:10015000DF010008DF010008DF010008DF010008FF
:10016000DF010008DF010008DF010008DF010008EF
:10017000DF010008DF010008DF01000800000000C7
:10018000DF010008DF010008DF010008DF010008CF
:10019000DF010008DF010008DF010008DF010008BF
:1001A0000000000000000000DF010008DFF810D0B0
:1001B00000F07CF800480047251B0008AFF30080E2
:1001C000400600200648804706480047FEE7FEE755
:1001D000FEE7FEE7FEE7FEE7FEE7FEE7FEE7FEE7F7
:1001E00009180008AD0100082DE9F05F0546002060
:1001F00092469B4688460646814640241BE0284698
:1002000041464746224600F041F853465A46C01A36
:10021000914110D311461846224600F028F82D1AB5
:1002200067EB01084F4622460120002100F01FF82D
:1002300017EB00094E41201EA4F10104DFDC484603
:1002400031462A464346BDE8F09FD2B201E000F8AD
:10025000012B491EFBD270470022F6E710B513466A
:100260000A4604461946FFF7F0FF204610BD202A33
:1002700004DB203A00FA02F1002070479140C2F1FD
:10028000200320FA03F3194390407047202A04DB2F
:10029000203A21FA02F00021704721FA02F3D040FF
:1002A000C2F120029140084319467047064C074DA1
:1002B00006E0E06840F0010394E807009847103436
:1002C000AC42F6D3FFF776FFE01D0008001E0008E1
:1002D000FEE70000014800F091B90000880100200D
:1002E000014800F08BB9000088010020704770477A
:1002F00090F82020012A09D090F82020022A05D069
:10030000416A41F4802141620120704700684269DE
:100310000A43426100207047F0B590F82040012C5C
:1003200007D090F82040022C03D0416A41F480218C
:100330005DE00468A5686D0105D4A5682D0102D4AF
:10034000A568ED0050D5A4680125C4F30164A5405B
:100350001D608D684FF4C0739DB1CE6835434E6803
:1003600045EAC605066803EB0417F5514FF4C2755C
:10037000076805EB04150E697E51097D012905D03A
:1003800009E00E88CD6845EA4655EBE701684E590D
:1003900046F480764E511179D579567941EA056156
:1003A00095792D0445EA062529434FF4C67605685C
:1003B00006EB0416A9511178D57841EA05619578C4
:1003C00052782D0445EA022211434FF4C4750268A5
:1003D00005EB04155151006803EB0411425842F03B
:1003E000010242500020F0BD416A41F40011416217
:1003F0000120F0BD10B590F82020012A09D090F816
:100400002020022A05D0416A41F480214162012066
:1004100010BD3A48D0F8002242F00102C0F8002294
:10042000D0F8002222F47C52C0F80022D0F800223A
:100430004B6A42EA0322C0F800220B7D01229A4057
:10044000D0F81C329343C0F81C32CB69B3B9D0F852
:100450000C329343C0F80C328C894B6864F31F4311
:100460004C6900EBC404C4F840320C890B6864F397
:100470001F434C6900EBC404C4F84432CB69012B20
:1004800016D1D0F80C321343C0F80C320C884B68EC
:1004900064F31F434C6900EBC404C4F840320C8978
:1004A000CB6864F31F434C6900EBC404C4F84432C6
:1004B0008B69002BD0F804320ED01343C0F80432FD
:1004C0000B69002BD0F8143208D01343C0F8143253
:1004D000096A012904D008E09343EFE79343F5E765
:1004E000D0F81C121143C0F81C12D0F8001221F0F1
:1004F0000101C0F80012002010BD0000006400409F
:10050000704730B590F82040012C07D090F820407B
:10051000022C03D0416A41F4802109E011B1012984
:1005200009D00CE00468E46807E0416A41F4001176
:100530004162012030BD04682469A407F5D04FF45E
:10054000D874056804EB01142D5915F00405956065
:1005500005682D5942D0ED08556005682C59C4F343
:100560004004D4604FF4DA74056804EB01142D598B
:1005700005F00F05156105682D59C5F3072595612F
:1005800005682C59240C54614FF4DC72046802EBAA
:100590000112A4581C700468A458240A5C700468F2
:1005A000A458240C9C700468A258120EDA704FF400
:1005B000DE72046802EB0112A4581C710468A4588E
:1005C000240A5C710468A458240C9C710468A25825
:1005D000120EDA7129B1012909D00DE06D0D1560F7
:1005E000BBE70068C16841F02001C16004E0006819
:1005F000016941F020010161002030BD2DE9F05F6B
:100600000546006800244669D0F804908768D0F851
:100610000CB0D0F810A0D0F81880F10748D0F90736
:1006200014D001218160B80703D5284600F027FACD
:100630000CE0780702D54FF4006407E0380702D5D4
:100640004FF4805402E0284600F018FAF80516D559
:1006500029684FF480708860B80503D5284600F0FB
:1006600010FA0CE0780502D544F4005407E0380590
:1006700002D544F4804402E0284600F001FAF80371
:1006800016D529684FF480308860B80303D5284612
:1006900000F0F9F90CE0780302D544F4004407E0D7
:1006A000380302D544F4803402E0284600F0EAF929
:1006B000300707D55FEACB6004D52968102044F4E1
:1006C0000074C86070074FF0080707D55FEA0B7029
:1006D00004D52868C760284600F060F9B00706D541
:1006E0002868C068800702D0284600F059F97006D3
:1006F00007D55FEACA6004D52968102044F48064F5
:100700000861B00607D55FEA0A7004D5286807615A
:10071000284600F083F9F00606D5286800698007AE
:1007200002D0284600F07BF9B00308D55FEAC96023
:1007300005D5296810204860284600F071F9F003BB
:1007400007D55FEA097004D528684760284600F09D
:100750009BF9300446D55FEA497040D5F00504D5D1
:100760005FEAC87001D044F00104B00504D55FEA27
:10077000887001D544F00204700504D55FEA487022
:1007800001D544F00404300529D518F0700F26D0A7
:1007900008F07000402815D006DC102809D0202869
:1007A0000AD0302816D10AE050280ED0602811D186
:1007B0000EE044F008040DE044F010040AE044F0B8
:1007C000200407E044F0400404E044F0800401E029
:1007D00044F480742868816921F07001816129687E
:1007E00004204860002C05D0686A204368622846CF
:1007F000FFF786FEBDE8F09F70B5040003D094F8C3
:10080000200010B104E0012070BD204600F082F805
:100810002068016821F00201016000F039FA054604
:10082000052604E000F034FA401B0A2811D820689D
:1008300040688007F6D42068016841F0010101603A
:1008400000F026FA05460BE000F022FA401B0A28C9
:1008500006D9606A40F40030606284F82060D2E714
:1008600020684068C007EFD0207E0128206801681A
:100870003DD021F080010160607E01282068016880
:1008800038D021F040010160A07E01282068016875
:1008900033D021F020010160E07E0128206801684A
:1008A0002ED041F010010160207F012820680168EE
:1008B00029D021F008010160607F012820680168CB
:1008C00024D021F004010160D4E902010843D4E9F5
:1008D0000412114308436168491E08432168C86136
:1008E00000206062012084F82000002070BD41F0EB
:1008F0008001C0E741F04001C5E741F02001CAE7AF
:1009000021F01001CFE741F00801D4E741F00401E4
:10091000D9E7000010B586B0044614216846FFF7F9
:100920009BFC1B49206888422FD11A48002102688D
:1009300042F000720260006800F0007005901548F7
:100940001038026842F0080202600068022200F0DB
:10095000080005900320CDE90210CDE9000209202E
:10096000049069460C4800F0A3F8002211461320B9
:1009700000F0FAF9132000F0EBF9002211461420E0
:1009800000F0F2F9142000F0E3F906B010BD000009
:100990000064004040380240000C024070470000F4
:1009A00000B51A4A016889B0914204D107AB6A4682
:1009B0000021FFF7A6FD00991548A1F2052107299E
:1009C00017D20288C9B2521C01EB410302801149BF
:1009D000BDF81C2001EB830152BA8A80BDF81E20AD
:1009E00052BACA80BDF8202052BA0A819DF822204E
:1009F0008A720188B1F5FA7F06D10021018006488C
:100A0000016881F48041016009B000BD00640040CC
:100A10001A000020EC0100201414024070477047B7
:100A20007047000070B5044690F82000012804D0FB
:100A3000606A40F40020606218E0022084F8200020
:100A40002068016821F00101016000F021F90546EC
:100A50000EE000BF00F01CF9401B0A2808D9606AAC
:100A600040F400306062052084F82000012070BD51
:100A700020684068C007EDD1606270BD7047704764
:100A800070477047704770477047000070B5044664
:100A900000F0FEF80546601C02D0044800780444CB
:100AA00000F0F6F8401BA042FAD370BD0800002009
:100AB0002DE9F84FDFF890B100224FF001084FF018
:100AC000030A4FF00F090BF1040E00BF0B6808FA80
:100AD00002F42340A3426ED14D68022D01D0122DA5
:100AE0000ED1D50800EB850CDCF820505607F70E28
:100AF00009FA07F6B5430E69BE402E43CCF82060D4
:100B0000066855000F790AFA05FC07F0030726EA84
:100B10000C06AF40374307604E68012E05D0022E09
:100B200003D0112E01D0122E0ED18768CE6827EA8D
:100B30000C07AE403E4386604668A6430C79C4F37A
:100B40000014944034434460C4688E6824EA0C0462
:100B5000AE402643C6604C68E4006FD53B4C256828
:100B600045F480452560246822F0030504F48044A0
:100B70000094374C2E19D6F8084895072F0F09FA1C
:100B800007F5AC43334DA84201D100252EE0324D8C
:100B9000A84201D1012529E0304DA84201D102250A
:100BA00024E02F4DA84201D103251FE02D4DA8427E
:100BB00002D104251AE041E02B4DA84201D10525C0
:100BC00014E02A4DA84201D106250FE0284DA84285
:100BD00001D107250AE0274DA84201D1082505E0EB
:100BE000254DA84201D1092500E00A25BD40254335
:100BF000C6F80858DBF800405D464E689C43F60393
:100C000000D51C432C60DEF8004075464E689C43BE
:100C1000B60300D51C432C600B4D08352C684E687C
:100C20009C43F60200D51C432C60074D0C352C6804
:100C30004E689C43B60200D51C432C60521C102AFF
:100C4000FFF444AFBDE8F88F003C01404438024057
:100C50000030014000000240000402400008024051
:100C6000000C024000100240001402400018024034
:100C7000001C02400020024000240240006908409D
:100C800000D0012070470AB1816170470904FBE779
:100C90000148806870470000080000200248816811
:100CA0000278114481607047080000200B4810B59D
:100CB000016841F400710160016841F480610160E4
:100CC000016841F480710160032000F06DF800209C
:100CD00000F006F800F024F8002010BD003C0240AF
:100CE00070B50D4D04464FF47A712878B1FBF0F0E1
:100CF0000A490968B1FBF0F000F0C0FA48B9102CBD
:100D000007D200222146501E00F02EF800206C6011
:100D100070BD012070BD00000800002014000020FC
:100D20000A4808B5016841F480410160006800F498
:100D3000804000900548001F016841F0805101602B
:100D4000006800F08050009008BD00004438024068
:100D500000F01F02012191404009800000F1E020D5
:100D6000C0F8001170470000F0B40E4B1B680C4631
:100D7000C3F30223C3F10705042D00D90425191D6F
:100D8000072901D2002300E0DB1E012606FA05F147
:100D9000491E214099409E40761E16403143F0BCCA
:100DA00000F0DCBC0CED00E0064900F0070208682A
:100DB0004FF6FF03184040EA0220034A1043086040
:100DC000704700000CED00E00000FA052DE9F04747
:100DD0000E46050065D0DFF81481D8F80000F7B2A0
:100DE00000F00F00B04207D288F80070D8F8000079
:100DF00000F00F00B04254D128683D4C810712D555
:100E0000400703D5206840F4E050206028780007B0
:100E100003D5206840F4604020602068A96820F075
:100E2000F000084320602878C0072DD0304968685A
:100E30000839012812D0022813D0032811D00968DC
:100E4000890700292DDA216821F00301014321607F
:100E5000FFF71EFF814641F2883A0EE009688903D8
:100E6000EFE709688901ECE7FFF712FFA0EB090142
:100E7000514502D90320BDE8F0872068696800F079
:100E80000C00B0EB810FEFD1D8F80010404601F014
:100E90000F01B14207D90770006800F00F00B0429F
:100EA00001D00120E7E72878400705D52068E968E8
:100EB00020F4E050084320602878000706D5206819
:100EC000296920F4604040EAC100206000F016F873
:100ED0002168084AC1F30311515CC8400649086003
:100EE0000020FFF7FDFE0020C5E70000003C0240A7
:100EF00008380240D01D000814000020154810B525
:100F0000006810F00C02144813D01449042A0FD0C2
:100F1000082A0ED10F4C241F2268236802F03F02DA
:100F20005B0207D52068C0F38810A0FB010106E032
:100F3000084610BD2168C1F38811A1FB0001002300
:100F4000FFF752F92168C1F30141491C4900B0FB88
:100F5000F1F010BD083802400024F400001BB70077
:100F60002DE9F84F050076D02878DFF8F8B2BE4CAE
:100F7000C00749D0DBF800105846C1F381010129B0
:100F800008D00068C0F3810002280AD1201D006843
:100F9000400206D52068800336D568680028E2D074
:100FA00032E06868B0F5803F10D0B0F5A02F20681F
:100FB00010D020F480302060206820F48020206051
:100FC0006868A0B1FFF764FE06460CE0206840F4B4
:100FD0008030F4E740F480202060F7E7FFF758FE08
:100FE000801B642873D820688003F7D50CE0FFF7D6
:100FF0004FFE064605E000BFFFF74AFE801B64284F
:10100000F0D820688003F7D42878DFF86082800762
:101010004FF000093ED5DBF80010584611F00C0FD8
:1010200009D00068C0F3810002280BD18D48001F51
:101030000068400206D42068800715D5E8680128BA
:1010400009D111E0E868B8B10120C8F80000FFF745
:101050001FFE064605E002E1FFF71AFE801B02288C
:10106000C0D820688007F7D52068296920F0F800EB
:1010700040EAC10020600DE0C8F80090FFF708FECC
:10108000064604E0FFF704FE801B02281FD82068F4
:101090008007F7D42878000722D5724E7448696912
:1010A0006C3671B101210160FFF7F2FD074604E0E3
:1010B000FFF7EEFDC01B022809D830688007F7D57E
:1010C0000EE0C0F80090FFF7E3FD074605E083E07F
:1010D000FFF7DEFDC01B02287ED830688007F7D4FA
:1010E0002878400768D5DFF87CA100270AF1380A84
:1010F000DAF80000C0000BD4DAF8001041F080519B
:10110000CAF80010DAF80000012700F080500090C3
:10111000584E3068C00510D4306840F4807030609C
:10112000FFF7B6FD009005E0FFF7B2FD0099401A09
:10113000022851D83068C005F6D54A4EA8686836EE
:1011400001280FD00528306810D020F00100306051
:10115000306820F004003060A868B8B1FFF798FD4F
:1011600000900FE0306840F00100F4E740F0040028
:101170003060F7E7FFF78CFD0099411A41F28830A3
:10118000814264D830688007F4D50EE0FFF780FD17
:10119000009007E0FFF77CFD0099411A41F288308A
:1011A000814254D830688007F4D42FB1DAF80010A7
:1011B00021F08051CAF80010A869C0B3DBF8001014
:1011C000C1F3810102294AD00228484607D0C8F855
:1011D0006000FFF75DFD00E039E005463AE0474674
:1011E000C8F86000FFF754FD064604E0FFF750FD25
:1011F000801B02282BD820688001F7D4D5E907018D
:101200000843A96A1C4A490802EB01416A6A41EA9B
:101210008211084395F82C1040EA01611148001F23
:10122000016001203866FFF733FD054605E014E054
:10123000FFF72EFD401B022809D820688001F7D552
:101240000BE000BFFFF724FD401B022802D903205A
:10125000BDE8F88F20688001F4D40020F8E7012071
:10126000F6E700000838024000380240000047421C
:10127000800E4742007000400000FFFF10B5401E86
:10128000B0F1807F01D3012010BD4FF0E0246061F8
:101290000F21601700F062FA0020A0610720206192
:1012A000002010BD10B590F83820012A25D0012269
:1012B00080F83820CA688C6822F4407222434C6857
:1012C00022F4806222430C6822F4006222430C69FB
:1012D00022F4805222434C6922F4005222438C694A
:1012E00022F48042224322F4004102680023214379
:1012F000516480F83830002010BD022010BD30B598
:1013000090F83820012A20D0012280F838200223CA
:1013100080F8393003685C6824F070045C6003680E
:101320005C680D682C435C6003689C6824F0800452
:101330009C6003689C6849680C439C6080F8392075
:10134000002180F83810084630BD022030BD000072
:1013500070B586B0044614216846FEF77DFF184933
:101360002068884229D117480024016841F0010112
:101370000160016801F001010591016841F010016F
:1013800001600068022500F0100005904FF44070E5
:101390000090CDE901540126CDE9034669460A488B
:1013A000FFF786FB4FF4C0400090CDE90154CDE932
:1013B000034669460548FFF77BFB06B070BD000099
:1013C000000001403038024000000240001002409E
:1013D00070B5044690F838000D4601280DD001265E
:1013E00084F83860022084F8390042B1042A18D009
:1013F000082A2AD00C2A4DD139E0022070BD20687D
:1014000000F098FA2068816941F008018161206844
:10141000816921F004018161206881692A69114391
:1014200011E0206800F0B2FA2068816941F400619F
:1014300081612068816921F480618161206881690E
:101440002A6941EA0221816124E0206800F0D0FA93
:101450002068C16941F00801C1612068C16921F0BB
:101460000401C1612068C1692A69114311E0206843
:1014700000F0EEFA2068C16941F40061C1612068A2
:10148000C16921F48061C1612068C1692A6941EAAA
:101490000221C16184F83960002084F8380070BDF1
:1014A00010B5040003D094F8390010B107E0012012
:1014B00010BD002084F83800204600F00DF802200E
:1014C00084F83900211D206800F0C8F9012084F853
:1014D0003900002010BD000008B5006806498842A8
:1014E00008D10648016841F001010160006800F080
:1014F0000100009008BD0000000001404438024097
:1015000010B504460068012200F008FA0849206876
:10151000884202D00749884203D1416C41F400411E
:1015200041642068016841F001010160002010BDA4
:101530000000014000040140FEE70000104810B523
:101540000E4901600321416000214FF400228160B7
:10155000C0E903124FF44012426101760122427643
:101560008176C17601774177FFF746F9002803D0ED
:10157000BDE81040FEF7BBBE10BD00000064004097
:10158000880100202DE9F04786B014216846FEF757
:1015900063FE37480024016841F0080101600168DA
:1015A00001F008010591016841F001010160016845
:1015B00001F001010591016841F0800101600168BD
:1015C00001F080010591016841F0020101600168AC
:1015D00001F002010591016841F01001016001680C
:1015E00001F010010591016841F0200101600068DF
:1015F000DFF8808000F02000059000223C2140466A
:10160000FFF741FBDFF870904FF40066002231468F
:101610004846FFF738FBDFF864A0F70000223946A0
:101620005046FFF730FB3C2000900125CDE90154E6
:10163000694640460394FFF73BFA0420CDE90004D5
:1016400069460F480294FFF733FA0096CDE901543A
:10165000694648460394FFF72BFA0097CDE90154F9
:10166000694650460394FFF723FA06B0BDE8F087B9
:1016700030380240001C02400010024000140240BA
:101680000004024010B590B000240E941C2168465E
:101690000F94FEF7E1FD1C2107A8FEF7DDFD2D48A4
:1016A0002B490160A721C0E9011444F62061C0E97B
:1016B00003144461FFF7F4FE08B1FEF718FE0E9420
:1016C0000EA924480F94FFF71AFE08B1FEF70FFE8B
:1016D000602000904FF47A70CDE9010403940494E3
:1016E0000594002269461B480694FFF771FE08B175
:1016F000FEF7FDFD042269461648FFF769FE08B1B2
:10170000FEF7F5FD082269461248FFF761FE08B1B1
:10171000FEF7EDFD0C2269460E48FFF759FE08B1B1
:10172000FEF7E5FD0794089409944FF400500A94DD
:10173000CDE90B4007A907480D94FFF7B3FD08B1A9
:10174000FEF7D5FD0348FFF703FE10B010BD000003
:1017500000000140B0010020FEE770470907090EB4
:10176000002806DA00F00F0000F1E02080F8141DD8
:10177000704700F1E02080F8001470477047704710
:10178000FFF78CBA30B593B030216846FEF764FDA0
:1017900014210CA8FEF760FD19480025016841F0EE
:1017A00080510160006800F0805011901548016878
:1017B00041F4404101600068022400F4404011906F
:1017C00001200090000401908001CDE90640062030
:1017D0000890A820CDE9090404200B906846FFF783
:1017E000BFFB0CA90F2081E831004FF4A0500F90EF
:1017F000E002109005210CA8FFF7E8FA13B030BD05
:1018000040380240007000401048016841F4700107
:1018100001600F48016841F0010101600C4A00219C
:101820000832116002680B4B1A400260031D0A4A1D
:101830001A60026822F48022026005480C300160C0
:1018400002495806803908607047000088ED00E0C2
:1018500000380240FFFFF6FE10300024F0B50268A9
:10186000234B244D244E254F254C4FF0804C98425D
:1018700009D0604507D0A84205D0B04203D0B84295
:1018800001D0A04204D122F0700E4A6842EA0E0252
:1018900098421BD0604519D0A84217D0B04215D04D
:1018A000B84213D0A04211D0164DA8420ED0164D0A
:1018B000A8420BD0154DA84208D0154DA84205D01E
:1018C000144DA84202D0144DA84203D122F4407511
:1018D000CA682A4302608A68C2620A6882629842C1
:1018E00001D0A04201D10969016301214161F0BD2C
:1018F000000001400004004000080040000C0040CF
:101900000004014000400140004401400048014003
:1019100000180040001C00400020004010B50123CA
:10192000046A8B409C430462036A8A401343036247
:1019300010BD000030B5026A22F001020262026AA4
:10194000436884690D6824F07304254322F002047F
:101950008A6822430B4CA04202D00B4CA0420BD110
:1019600022F00804CA6823F4407322434C6922F031
:1019700004021C438B6923434360856149684163CA
:10198000026230BD000001400004014030B5026A2F
:1019900022F010020262026A436884690D6824F42E
:1019A000E64444EA05248D6822F0200242EA05124A
:1019B0000D4DA84202D00D4DA8420ED1CD6822F0A7
:1019C000800242EA05124D6923F4406343EA85032D
:1019D0008D6922F0400243EA8503436084614968CF
:1019E0008163026230BD000000000140000401403C
:1019F00030B5026A22F480720262036A4268C469E6
:101A000023F4007324F073050C682C438D6843EABB
:101A100005230D4DA84202D00C4DA8420ED1CD6831
:101A200023F4006343EA05234D6922F4405242EA5D
:101A300005128D6923F4806342EA05124260C46195
:101A40004968C163036230BD0000014000040140E9
:101A500030B5026A22F480520262046A4268C369A5
:101A60000D6823F4E64343EA05238D6824F400540B
:101A700044EA0534084DA84202D0084DA84204D1DA
:101A80004D6922F4804242EA85124260C36149688E
:101A90000164046230BD0000000001400004014008
:101AA000FEE702E008C8121F08C1002AFAD17047F9
:101AB0007047002001E001C1121F002AFBD17047CE
:101AC00000B58BB000210122CDE9061205910091ED
:101AD00001910291039104910E21CDE908216946FB
:101AE000FEF788FC0448FEF79DFF02210248FEF73E
:101AF000FFFB0BB000BD00008801002010B5074CB3
:101B00000421607820700648FFF7B8F8607010B9BB
:101B10002078012800D0002010BD0000180000200F
:101B2000000402402DED048B82B0FFF7BFF8FFF7F1
:101B300029FEFFF727FDFFF701FDFFF7A3FD0122B7
:101B40003C214A48FFF79FF800F0FEF84848FFF7AD
:101B5000B7FF00249FED479ADFED478A9FED478A44
:101B6000474D00BF04EB8400F0EE491A00EBC400BF
:101B700005EB8000B0EE612AB0EE481AF0EE080ADC
:101B8000B0EE680A00F0DDF8641CE4B2072CE9D37B
:101B9000A8463C4D3C4E4FF000096888401C00B2FE
:101BA0006880FA2806D13948A5F80290416981F485
:101BB00000614161FFF7A2FFA0B195ED010ADFEDE1
:101BC000340A344930EE200A85ED010A2888D230E3
:101BD000288010EE100A884204DD85ED018A4FF45A
:101BE000876028805FF0000404EB440006EB800768
:101BF000B7F9060000EE100A04EB840000EBC40104
:101C0000F8EEC00A08EB810095ED010A00F046F8F5
:101C1000BDEEC00A641CE4B210EE100A072C7880F6
:101C2000E2D3B6F926000090B6F91A30B6F90E20C4
:101C3000B6F90210002000F09DF8CDF80090B6F93A
:101C40004A30B6F93E20B6F93210012000F092F881
:101C5000114928880A6850630A6890630968C86354
:101C600008640020FEF712FF97E70000001C024006
:101C7000880100200060EA460000204200000000C9
:101C80001C00002000000020EC0100200010024099
:101C90000000704200003443B001002080ED050ACE
:101CA000C0ED060A90ED071A70EE600A80ED081A82
:101CB000C0ED070A90ED000A60EE201AC0ED091A87
:101CC00090ED0A0A90ED012A02EE200A70EEC10A98
:101CD00080ED0A0A90ED021A20EE812A80ED0B2A8F
:101CE000D0ED030AB1EE601AB4EEC10AF1EE10FABB
:101CF00002D8B0EE410A06E0B4EEE00AF1EE10FAC6
:101D000001DBB0EE600A80ED0A0A31EE800A30EEA7
:101D1000020A80ED0C0AD0ED040AB1EE601AB4EEAE
:101D2000C10AF1EE10FA02D8B0EE410A06E0B4EEB4
:101D3000E00AF1EE10FA01DBB0EE600A80ED0C0A69
:101D4000704780EC050A704710B500210848FFF77E
:101D5000D7FB04210648FFF7D3FB08210448FFF70F
:101D6000CFFBBDE810400C210148FFF7C9BB0000C4
:101D7000B001002010B588B00A9C18B340F2FF20D3
:101D8000029000200490059008200690080A8DF823
:101D900000008DF80110100A8DF80200180A8DF865
:101DA00004008DF80530200A8DF806008DF8032018
:101DB0008DF8074001236A4602A90448FEF7ACFAF1
:101DC00008B010BD40F2FF10DAE7000088010020E3
:101DD00000000000000000000102030406070809DB
:101DE000001E0008000000201C000000A21A0008CD
:101DF0001C1E00081C00002024060000B21A000867
:101E00003804000000000000010000001000000085
:0C1E1000000000000024F40000000000AE
:04000005080001AD41
:00000001FF
